{"abi":[{"type":"constructor","inputs":[{"name":"_pair","type":"address","internalType":"address"},{"name":"_stop_order","type":"address","internalType":"address"},{"name":"_client","type":"address","internalType":"address"},{"name":"_token0","type":"bool","internalType":"bool"},{"name":"_coefficient","type":"uint256","internalType":"uint256"},{"name":"_threshold","type":"uint256","internalType":"uint256"}],"stateMutability":"payable"},{"type":"receive","stateMutability":"payable"},{"type":"function","name":"coverDebt","inputs":[],"outputs":[],"stateMutability":"nonpayable"},{"type":"function","name":"pay","inputs":[{"name":"amount","type":"uint256","internalType":"uint256"}],"outputs":[],"stateMutability":"nonpayable"},{"type":"function","name":"react","inputs":[{"name":"log","type":"tuple","internalType":"struct IReactive.LogRecord","components":[{"name":"chain_id","type":"uint256","internalType":"uint256"},{"name":"_contract","type":"address","internalType":"address"},{"name":"topic_0","type":"uint256","internalType":"uint256"},{"name":"topic_1","type":"uint256","internalType":"uint256"},{"name":"topic_2","type":"uint256","internalType":"uint256"},{"name":"topic_3","type":"uint256","internalType":"uint256"},{"name":"data","type":"bytes","internalType":"bytes"},{"name":"block_number","type":"uint256","internalType":"uint256"},{"name":"op_code","type":"uint256","internalType":"uint256"},{"name":"block_hash","type":"uint256","internalType":"uint256"},{"name":"tx_hash","type":"uint256","internalType":"uint256"},{"name":"log_index","type":"uint256","internalType":"uint256"}]}],"outputs":[],"stateMutability":"nonpayable"},{"type":"event","name":"AboveThreshold","inputs":[{"name":"reserve0","type":"uint112","indexed":true,"internalType":"uint112"},{"name":"reserve1","type":"uint112","indexed":true,"internalType":"uint112"},{"name":"coefficient","type":"uint256","indexed":false,"internalType":"uint256"},{"name":"threshold","type":"uint256","indexed":false,"internalType":"uint256"}],"anonymous":false},{"type":"event","name":"Callback","inputs":[{"name":"chain_id","type":"uint256","indexed":true,"internalType":"uint256"},{"name":"_contract","type":"address","indexed":true,"internalType":"address"},{"name":"gas_limit","type":"uint64","indexed":true,"internalType":"uint64"},{"name":"payload","type":"bytes","indexed":false,"internalType":"bytes"}],"anonymous":false},{"type":"event","name":"CallbackSent","inputs":[],"anonymous":false},{"type":"event","name":"Done","inputs":[],"anonymous":false},{"type":"event","name":"ReactRefunded","inputs":[{"name":"client","type":"address","indexed":true,"internalType":"address"},{"name":"amount","type":"uint256","indexed":false,"internalType":"uint256"}],"anonymous":false},{"type":"event","name":"Subscribed","inputs":[{"name":"service_address","type":"address","indexed":true,"internalType":"address"},{"name":"_contract","type":"address","indexed":true,"internalType":"address"},{"name":"topic_0","type":"uint256","indexed":true,"internalType":"uint256"}],"anonymous":false},{"type":"event","name":"VM","inputs":[],"anonymous":false}],"bytecode":{"object":"0x608060405260405161171b38038061171b8339818101604052810190610025919061056c565b62ffffff600260016101000a81548173ffffffffffffffffffffffffffffffffffffffff021916908373ffffffffffffffffffffffffffffffffffffffff16021790555f5f6101000a81548173ffffffffffffffffffffffffffffffffffffffff021916908373ffffffffffffffffffffffffffffffffffffffff1602179055506100b862ffffff61042960201b60201c565b6100c661048060201b60201c565b5f600260156101000a81548160ff0219169083151502179055505f600260166101000a81548160ff0219169083151502179055508560035f6101000a81548173ffffffffffffffffffffffffffffffffffffffff021916908373ffffffffffffffffffffffffffffffffffffffff1602179055508460045f6101000a81548173ffffffffffffffffffffffffffffffffffffffff021916908373ffffffffffffffffffffffffffffffffffffffff1602179055508360055f6101000a81548173ffffffffffffffffffffffffffffffffffffffff021916908373ffffffffffffffffffffffffffffffffffffffff16021790555082600560146101000a81548160ff021916908315150217905550816006819055508060078190555060025f9054906101000a900460ff1661041e57600260019054906101000a900473ffffffffffffffffffffffffffffffffffffffff1673ffffffffffffffffffffffffffffffffffffffff16635a6aced0600160035f9054906101000a900473ffffffffffffffffffffffffffffffffffffffff167f1c411e9a96e071241c2f21f7726b17ae89e3cab4c78be50e062b03a9fffbbad17fa65f96fc951c35ead38878e0f0b7a3c744a6f5ccc1476b313353ce31712313ad807fa65f96fc951c35ead38878e0f0b7a3c744a6f5ccc1476b313353ce31712313ad6040518763ffffffff1660e01b81526004016102dc96959493929190610613565b5f604051808303815f87803b1580156102f3575f5ffd5b505af1158015610305573d5f5f3e3d5ffd5b50505050600260019054906101000a900473ffffffffffffffffffffffffffffffffffffffff1673ffffffffffffffffffffffffffffffffffffffff16635a6aced0600160045f9054906101000a900473ffffffffffffffffffffffffffffffffffffffff167f9996f0dd09556ca972123b22cf9f75c3765bc699a1336a85286c7cb8b9889c6b7fa65f96fc951c35ead38878e0f0b7a3c744a6f5ccc1476b313353ce31712313ad807fa65f96fc951c35ead38878e0f0b7a3c744a6f5ccc1476b313353ce31712313ad6040518763ffffffff1660e01b81526004016103f096959493929190610613565b5f604051808303815f87803b158015610407575f5ffd5b505af1158015610419573d5f5f3e3d5ffd5b505050505b505050505050610672565b6001805f8373ffffffffffffffffffffffffffffffffffffffff1673ffffffffffffffffffffffffffffffffffffffff1681526020019081526020015f205f6101000a81548160ff02191690831515021790555050565b5f62ffffff3b90505f811460025f6101000a81548160ff02191690831515021790555050565b5f5ffd5b5f73ffffffffffffffffffffffffffffffffffffffff82169050919050565b5f6104d3826104aa565b9050919050565b6104e3816104c9565b81146104ed575f5ffd5b50565b5f815190506104fe816104da565b92915050565b5f8115159050919050565b61051881610504565b8114610522575f5ffd5b50565b5f815190506105338161050f565b92915050565b5f819050919050565b61054b81610539565b8114610555575f5ffd5b50565b5f8151905061056681610542565b92915050565b5f5f5f5f5f5f60c08789031215610586576105856104a6565b5b5f61059389828a016104f0565b96505060206105a489828a016104f0565b95505060406105b589828a016104f0565b94505060606105c689828a01610525565b93505060806105d789828a01610558565b92505060a06105e889828a01610558565b9150509295509295509295565b6105fe81610539565b82525050565b61060d816104c9565b82525050565b5f60c0820190506106265f8301896105f5565b6106336020830188610604565b61064060408301876105f5565b61064d60608301866105f5565b61065a60808301856105f5565b61066760a08301846105f5565b979650505050505050565b61109c8061067f5f395ff3fe608060405260043610610037575f3560e01c80630d152c2c146100425780637a90b9901461006a578063c290d691146100805761003e565b3661003e57005b5f5ffd5b34801561004d575f5ffd5b5061006860048036038101906100639190610907565b6100a8565b005b348015610075575f5ffd5b5061007e61057f565b005b34801561008b575f5ffd5b506100a660048036038101906100a19190610981565b610647565b005b60025f9054906101000a900460ff166100f6576040517f08c379a00000000000000000000000000000000000000000000000000000000081526004016100ed90610a06565b60405180910390fd5b600260169054906101000a900460ff161561011457610113610a24565b5b60045f9054906101000a900473ffffffffffffffffffffffffffffffffffffffff1673ffffffffffffffffffffffffffffffffffffffff1681602001602081019061015f9190610aab565b73ffffffffffffffffffffffffffffffffffffffff160361037957600260159054906101000a900460ff1680156101b957507f9996f0dd09556ca972123b22cf9f75c3765bc699a1336a85286c7cb8b9889c6b8160400135145b80156101ff575060035f9054906101000a900473ffffffffffffffffffffffffffffffffffffffff1673ffffffffffffffffffffffffffffffffffffffff168160600135145b8015610245575060055f9054906101000a900473ffffffffffffffffffffffffffffffffffffffff1673ffffffffffffffffffffffffffffffffffffffff168160800135145b15610374576001600260166101000a81548160ff0219169083151502179055507f9f9fb434574749b74458e0ddc3cf5fd5bdb1b009c8615e825606b53724576f3560405160405180910390a15f4790505f8111156103725760055f9054906101000a900473ffffffffffffffffffffffffffffffffffffffff1673ffffffffffffffffffffffffffffffffffffffff166108fc8290811502906040515f60405180830381858888f19350505050158015610301573d5f5f3e3d5ffd5b5060055f9054906101000a900473ffffffffffffffffffffffffffffffffffffffff1673ffffffffffffffffffffffffffffffffffffffff167f3f69cc8f0ddf99f7501f6c3f7c96426b36cadd6eaf7528434366412d137097e8826040516103699190610ae5565b60405180910390a25b505b61057c565b5f818060c0019061038a9190610b0a565b8101906103979190610c88565b90506103a2816106dd565b80156103bb5750600260159054906101000a900460ff16155b1561057a577f52b19d35843f734b8fafec640fa01006d27ffc8b2d7ba72d41de82a3a292a8f860405160405180910390a15f5f60035f9054906101000a900473ffffffffffffffffffffffffffffffffffffffff1660055f9054906101000a900473ffffffffffffffffffffffffffffffffffffffff16600560149054906101000a900460ff1660065460075460405160240161045d96959493929190610cdc565b6040516020818303038152906040527fef201296000000000000000000000000000000000000000000000000000000007bffffffffffffffffffffffffffffffffffffffffffffffffffffffff19166020820180517bffffffffffffffffffffffffffffffffffffffffffffffffffffffff838183161783525050505090506001600260156101000a81548160ff021916908315150217905550620f424067ffffffffffffffff1660045f9054906101000a900473ffffffffffffffffffffffffffffffffffffffff1673ffffffffffffffffffffffffffffffffffffffff16845f01357f8dd725fa9d6cd150017ab9e60318d40616439424e2fade9c1c58854950917dfc846040516105709190610d9b565b60405180910390a4505b505b50565b5f5f5f9054906101000a900473ffffffffffffffffffffffffffffffffffffffff1673ffffffffffffffffffffffffffffffffffffffff16639b6c56ec306040518263ffffffff1660e01b81526004016105d99190610dbb565b602060405180830381865afa1580156105f4573d5f5f3e3d5ffd5b505050506040513d601f19601f820116820180604052508101906106189190610de8565b90506106445f5f9054906101000a900473ffffffffffffffffffffffffffffffffffffffff168261078c565b50565b60015f3373ffffffffffffffffffffffffffffffffffffffff1673ffffffffffffffffffffffffffffffffffffffff1681526020019081526020015f205f9054906101000a900460ff166106d0576040517f08c379a00000000000000000000000000000000000000000000000000000000081526004016106c790610e5d565b60405180910390fd5b6106da338261078c565b50565b5f600560149054906101000a900460ff161561073f57600754825f01516dffffffffffffffffffffffffffff1660065484602001516dffffffffffffffffffffffffffff1661072c9190610ea8565b6107369190610f16565b11159050610787565b60075482602001516dffffffffffffffffffffffffffff16600654845f01516dffffffffffffffffffffffffffff166107789190610ea8565b6107829190610f16565b111590505b919050565b804710156107cf576040517f08c379a00000000000000000000000000000000000000000000000000000000081526004016107c690610f90565b60405180910390fd5b5f8111156108cf575f8273ffffffffffffffffffffffffffffffffffffffff16825f67ffffffffffffffff81111561080a57610809610b80565b5b6040519080825280601f01601f19166020018201604052801561083c5781602001600182028036833780820191505090505b5060405161084a9190610fe8565b5f6040518083038185875af1925050503d805f8114610884576040519150601f19603f3d011682016040523d82523d5f602084013e610889565b606091505b50509050806108cd576040517f08c379a00000000000000000000000000000000000000000000000000000000081526004016108c490611048565b60405180910390fd5b505b5050565b5f604051905090565b5f5ffd5b5f5ffd5b5f5ffd5b5f61018082840312156108fe576108fd6108e4565b5b81905092915050565b5f6020828403121561091c5761091b6108dc565b5b5f82013567ffffffffffffffff811115610939576109386108e0565b5b610945848285016108e8565b91505092915050565b5f819050919050565b6109608161094e565b811461096a575f5ffd5b50565b5f8135905061097b81610957565b92915050565b5f60208284031215610996576109956108dc565b5b5f6109a38482850161096d565b91505092915050565b5f82825260208201905092915050565b7f564d206f6e6c79000000000000000000000000000000000000000000000000005f82015250565b5f6109f06007836109ac565b91506109fb826109bc565b602082019050919050565b5f6020820190508181035f830152610a1d816109e4565b9050919050565b7f4e487b71000000000000000000000000000000000000000000000000000000005f52600160045260245ffd5b5f73ffffffffffffffffffffffffffffffffffffffff82169050919050565b5f610a7a82610a51565b9050919050565b610a8a81610a70565b8114610a94575f5ffd5b50565b5f81359050610aa581610a81565b92915050565b5f60208284031215610ac057610abf6108dc565b5b5f610acd84828501610a97565b91505092915050565b610adf8161094e565b82525050565b5f602082019050610af85f830184610ad6565b92915050565b5f5ffd5b5f5ffd5b5f5ffd5b5f5f83356001602003843603038112610b2657610b25610afe565b5b80840192508235915067ffffffffffffffff821115610b4857610b47610b02565b5b602083019250600182023603831315610b6457610b63610b06565b5b509250929050565b5f5ffd5b5f601f19601f8301169050919050565b7f4e487b71000000000000000000000000000000000000000000000000000000005f52604160045260245ffd5b610bb682610b70565b810181811067ffffffffffffffff82111715610bd557610bd4610b80565b5b80604052505050565b5f610be76108d3565b9050610bf38282610bad565b919050565b5f6dffffffffffffffffffffffffffff82169050919050565b610c1a81610bf8565b8114610c24575f5ffd5b50565b5f81359050610c3581610c11565b92915050565b5f60408284031215610c5057610c4f610b6c565b5b610c5a6040610bde565b90505f610c6984828501610c27565b5f830152506020610c7c84828501610c27565b60208301525092915050565b5f60408284031215610c9d57610c9c6108dc565b5b5f610caa84828501610c3b565b91505092915050565b610cbc81610a70565b82525050565b5f8115159050919050565b610cd681610cc2565b82525050565b5f60c082019050610cef5f830189610cb3565b610cfc6020830188610cb3565b610d096040830187610cb3565b610d166060830186610ccd565b610d236080830185610ad6565b610d3060a0830184610ad6565b979650505050505050565b5f81519050919050565b5f82825260208201905092915050565b8281835e5f83830152505050565b5f610d6d82610d3b565b610d778185610d45565b9350610d87818560208601610d55565b610d9081610b70565b840191505092915050565b5f6020820190508181035f830152610db38184610d63565b905092915050565b5f602082019050610dce5f830184610cb3565b92915050565b5f81519050610de281610957565b92915050565b5f60208284031215610dfd57610dfc6108dc565b5b5f610e0a84828501610dd4565b91505092915050565b7f417574686f72697a65642073656e646572206f6e6c79000000000000000000005f82015250565b5f610e476016836109ac565b9150610e5282610e13565b602082019050919050565b5f6020820190508181035f830152610e7481610e3b565b9050919050565b7f4e487b71000000000000000000000000000000000000000000000000000000005f52601160045260245ffd5b5f610eb28261094e565b9150610ebd8361094e565b9250828202610ecb8161094e565b91508282048414831517610ee257610ee1610e7b565b5b5092915050565b7f4e487b71000000000000000000000000000000000000000000000000000000005f52601260045260245ffd5b5f610f208261094e565b9150610f2b8361094e565b925082610f3b57610f3a610ee9565b5b828204905092915050565b7f496e73756666696369656e742066756e647300000000000000000000000000005f82015250565b5f610f7a6012836109ac565b9150610f8582610f46565b602082019050919050565b5f6020820190508181035f830152610fa781610f6e565b9050919050565b5f81905092915050565b5f610fc282610d3b565b610fcc8185610fae565b9350610fdc818560208601610d55565b80840191505092915050565b5f610ff38284610fb8565b915081905092915050565b7f5472616e73666572206661696c656400000000000000000000000000000000005f82015250565b5f611032600f836109ac565b915061103d82610ffe565b602082019050919050565b5f6020820190508181035f83015261105f81611026565b905091905056fea2646970667358221220c41c7adc565846c455040c37c3a0a67c0cf1d3375a84a131104067c4f190933664736f6c634300081c0033","linkReferences":{}},"methodIdentifiers":{"coverDebt()":"7a90b990","pay(uint256)":"c290d691","react((uint256,address,uint256,uint256,uint256,uint256,bytes,uint256,uint256,uint256,uint256,uint256))":"0d152c2c"},"id":7}