{"abi":[{"type":"constructor","inputs":[{"name":"_pair","type":"address","internalType":"address"},{"name":"_stop_order","type":"address","internalType":"address"},{"name":"_client","type":"address","internalType":"address"},{"name":"_token0","type":"bool","internalType":"bool"},{"name":"_coefficient","type":"uint256","internalType":"uint256"},{"name":"_threshold","type":"uint256","internalType":"uint256"}],"stateMutability":"payable"},{"type":"receive","stateMutability":"payable"},{"type":"function","name":"coverDebt","inputs":[],"outputs":[],"stateMutability":"nonpayable"},{"type":"function","name":"pay","inputs":[{"name":"amount","type":"uint256","internalType":"uint256"}],"outputs":[],"stateMutability":"nonpayable"},{"type":"function","name":"react","inputs":[{"name":"log","type":"tuple","internalType":"struct IReactive.LogRecord","components":[{"name":"chain_id","type":"uint256","internalType":"uint256"},{"name":"_contract","type":"address","internalType":"address"},{"name":"topic_0","type":"uint256","internalType":"uint256"},{"name":"topic_1","type":"uint256","internalType":"uint256"},{"name":"topic_2","type":"uint256","internalType":"uint256"},{"name":"topic_3","type":"uint256","internalType":"uint256"},{"name":"data","type":"bytes","internalType":"bytes"},{"name":"block_number","type":"uint256","internalType":"uint256"},{"name":"op_code","type":"uint256","internalType":"uint256"},{"name":"block_hash","type":"uint256","internalType":"uint256"},{"name":"tx_hash","type":"uint256","internalType":"uint256"},{"name":"log_index","type":"uint256","internalType":"uint256"}]}],"outputs":[],"stateMutability":"nonpayable"},{"type":"event","name":"AboveThreshold","inputs":[{"name":"reserve0","type":"uint112","indexed":true,"internalType":"uint112"},{"name":"reserve1","type":"uint112","indexed":true,"internalType":"uint112"},{"name":"coefficient","type":"uint256","indexed":false,"internalType":"uint256"},{"name":"threshold","type":"uint256","indexed":false,"internalType":"uint256"}],"anonymous":false},{"type":"event","name":"Callback","inputs":[{"name":"chain_id","type":"uint256","indexed":true,"internalType":"uint256"},{"name":"_contract","type":"address","indexed":true,"internalType":"address"},{"name":"gas_limit","type":"uint64","indexed":true,"internalType":"uint64"},{"name":"payload","type":"bytes","indexed":false,"internalType":"bytes"}],"anonymous":false},{"type":"event","name":"CallbackSent","inputs":[],"anonymous":false},{"type":"event","name":"Done","inputs":[],"anonymous":false},{"type":"event","name":"ReactRefunded","inputs":[{"name":"client","type":"address","indexed":true,"internalType":"address"},{"name":"amount","type":"uint256","indexed":false,"internalType":"uint256"}],"anonymous":false},{"type":"event","name":"Subscribed","inputs":[{"name":"service_address","type":"address","indexed":true,"internalType":"address"},{"name":"_contract","type":"address","indexed":true,"internalType":"address"},{"name":"topic_0","type":"uint256","indexed":true,"internalType":"uint256"}],"anonymous":false},{"type":"event","name":"VM","inputs":[],"anonymous":false}],"bytecode":{"object":"0x608060405260405161181f38038061181f8339818101604052810190610025919061056c565b62ffffff600260016101000a81548173ffffffffffffffffffffffffffffffffffffffff021916908373ffffffffffffffffffffffffffffffffffffffff16021790555f5f6101000a81548173ffffffffffffffffffffffffffffffffffffffff021916908373ffffffffffffffffffffffffffffffffffffffff1602179055506100b862ffffff61042960201b60201c565b6100c661048060201b60201c565b5f600260156101000a81548160ff0219169083151502179055505f600260166101000a81548160ff0219169083151502179055508560035f6101000a81548173ffffffffffffffffffffffffffffffffffffffff021916908373ffffffffffffffffffffffffffffffffffffffff1602179055508460045f6101000a81548173ffffffffffffffffffffffffffffffffffffffff021916908373ffffffffffffffffffffffffffffffffffffffff1602179055508360055f6101000a81548173ffffffffffffffffffffffffffffffffffffffff021916908373ffffffffffffffffffffffffffffffffffffffff16021790555082600560146101000a81548160ff021916908315150217905550816006819055508060078190555060025f9054906101000a900460ff1661041e57600260019054906101000a900473ffffffffffffffffffffffffffffffffffffffff1673ffffffffffffffffffffffffffffffffffffffff16635a6aced0600160035f9054906101000a900473ffffffffffffffffffffffffffffffffffffffff167f1c411e9a96e071241c2f21f7726b17ae89e3cab4c78be50e062b03a9fffbbad17fa65f96fc951c35ead38878e0f0b7a3c744a6f5ccc1476b313353ce31712313ad807fa65f96fc951c35ead38878e0f0b7a3c744a6f5ccc1476b313353ce31712313ad6040518763ffffffff1660e01b81526004016102dc96959493929190610613565b5f604051808303815f87803b1580156102f3575f5ffd5b505af1158015610305573d5f5f3e3d5ffd5b50505050600260019054906101000a900473ffffffffffffffffffffffffffffffffffffffff1673ffffffffffffffffffffffffffffffffffffffff16635a6aced0600160045f9054906101000a900473ffffffffffffffffffffffffffffffffffffffff167f9996f0dd09556ca972123b22cf9f75c3765bc699a1336a85286c7cb8b9889c6b7fa65f96fc951c35ead38878e0f0b7a3c744a6f5ccc1476b313353ce31712313ad807fa65f96fc951c35ead38878e0f0b7a3c744a6f5ccc1476b313353ce31712313ad6040518763ffffffff1660e01b81526004016103f096959493929190610613565b5f604051808303815f87803b158015610407575f5ffd5b505af1158015610419573d5f5f3e3d5ffd5b505050505b505050505050610672565b6001805f8373ffffffffffffffffffffffffffffffffffffffff1673ffffffffffffffffffffffffffffffffffffffff1681526020019081526020015f205f6101000a81548160ff02191690831515021790555050565b5f62ffffff3b90505f811460025f6101000a81548160ff02191690831515021790555050565b5f5ffd5b5f73ffffffffffffffffffffffffffffffffffffffff82169050919050565b5f6104d3826104aa565b9050919050565b6104e3816104c9565b81146104ed575f5ffd5b50565b5f815190506104fe816104da565b92915050565b5f8115159050919050565b61051881610504565b8114610522575f5ffd5b50565b5f815190506105338161050f565b92915050565b5f819050919050565b61054b81610539565b8114610555575f5ffd5b50565b5f8151905061056681610542565b92915050565b5f5f5f5f5f5f60c08789031215610586576105856104a6565b5b5f61059389828a016104f0565b96505060206105a489828a016104f0565b95505060406105b589828a016104f0565b94505060606105c689828a01610525565b93505060806105d789828a01610558565b92505060a06105e889828a01610558565b9150509295509295509295565b6105fe81610539565b82525050565b61060d816104c9565b82525050565b5f60c0820190506106265f8301896105f5565b6106336020830188610604565b61064060408301876105f5565b61064d60608301866105f5565b61065a60808301856105f5565b61066760a08301846105f5565b979650505050505050565b6111a08061067f5f395ff3fe608060405260043610610037575f3560e01c80630d152c2c146100425780637a90b9901461006a578063c290d691146100805761003e565b3661003e57005b5f5ffd5b34801561004d575f5ffd5b506100686004803603810190610063919061096c565b6100a8565b005b348015610075575f5ffd5b5061007e6105e4565b005b34801561008b575f5ffd5b506100a660048036038101906100a191906109e6565b6106ac565b005b60025f9054906101000a900460ff166100f6576040517f08c379a00000000000000000000000000000000000000000000000000000000081526004016100ed90610a6b565b60405180910390fd5b600260169054906101000a900460ff161561011457610113610a89565b5b60045f9054906101000a900473ffffffffffffffffffffffffffffffffffffffff1673ffffffffffffffffffffffffffffffffffffffff1681602001602081019061015f9190610b10565b73ffffffffffffffffffffffffffffffffffffffff16036103de57600260159054906101000a900460ff1680156101b957507f9996f0dd09556ca972123b22cf9f75c3765bc699a1336a85286c7cb8b9889c6b8160400135145b80156101ff575060035f9054906101000a900473ffffffffffffffffffffffffffffffffffffffff1673ffffffffffffffffffffffffffffffffffffffff168160600135145b8015610245575060055f9054906101000a900473ffffffffffffffffffffffffffffffffffffffff1673ffffffffffffffffffffffffffffffffffffffff168160800135145b156103d9576001600260166101000a81548160ff0219169083151502179055507f9f9fb434574749b74458e0ddc3cf5fd5bdb1b009c8615e825606b53724576f3560405160405180910390a15f4790505f8111156103d7575f60055f9054906101000a900473ffffffffffffffffffffffffffffffffffffffff1673ffffffffffffffffffffffffffffffffffffffff16826040516102e390610b68565b5f6040518083038185875af1925050503d805f811461031d576040519150601f19603f3d011682016040523d82523d5f602084013e610322565b606091505b5050905080610366576040517f08c379a000000000000000000000000000000000000000000000000000000000815260040161035d90610bc6565b60405180910390fd5b60055f9054906101000a900473ffffffffffffffffffffffffffffffffffffffff1673ffffffffffffffffffffffffffffffffffffffff167f3f69cc8f0ddf99f7501f6c3f7c96426b36cadd6eaf7528434366412d137097e8836040516103cd9190610bf3565b60405180910390a2505b505b6105e1565b5f818060c001906103ef9190610c18565b8101906103fc9190610d96565b905061040781610742565b80156104205750600260159054906101000a900460ff16155b156105df577f52b19d35843f734b8fafec640fa01006d27ffc8b2d7ba72d41de82a3a292a8f860405160405180910390a15f5f60035f9054906101000a900473ffffffffffffffffffffffffffffffffffffffff1660055f9054906101000a900473ffffffffffffffffffffffffffffffffffffffff16600560149054906101000a900460ff166006546007546040516024016104c296959493929190610dea565b6040516020818303038152906040527fef201296000000000000000000000000000000000000000000000000000000007bffffffffffffffffffffffffffffffffffffffffffffffffffffffff19166020820180517bffffffffffffffffffffffffffffffffffffffffffffffffffffffff838183161783525050505090506001600260156101000a81548160ff021916908315150217905550620f424067ffffffffffffffff1660045f9054906101000a900473ffffffffffffffffffffffffffffffffffffffff1673ffffffffffffffffffffffffffffffffffffffff16845f01357f8dd725fa9d6cd150017ab9e60318d40616439424e2fade9c1c58854950917dfc846040516105d59190610ea9565b60405180910390a4505b505b50565b5f5f5f9054906101000a900473ffffffffffffffffffffffffffffffffffffffff1673ffffffffffffffffffffffffffffffffffffffff16639b6c56ec306040518263ffffffff1660e01b815260040161063e9190610ec9565b602060405180830381865afa158015610659573d5f5f3e3d5ffd5b505050506040513d601f19601f8201168201806040525081019061067d9190610ef6565b90506106a95f5f9054906101000a900473ffffffffffffffffffffffffffffffffffffffff16826107f1565b50565b60015f3373ffffffffffffffffffffffffffffffffffffffff1673ffffffffffffffffffffffffffffffffffffffff1681526020019081526020015f205f9054906101000a900460ff16610735576040517f08c379a000000000000000000000000000000000000000000000000000000000815260040161072c90610f6b565b60405180910390fd5b61073f33826107f1565b50565b5f600560149054906101000a900460ff16156107a457600754825f01516dffffffffffffffffffffffffffff1660065484602001516dffffffffffffffffffffffffffff166107919190610fb6565b61079b9190611024565b111590506107ec565b60075482602001516dffffffffffffffffffffffffffff16600654845f01516dffffffffffffffffffffffffffff166107dd9190610fb6565b6107e79190611024565b111590505b919050565b80471015610834576040517f08c379a000000000000000000000000000000000000000000000000000000000815260040161082b9061109e565b60405180910390fd5b5f811115610934575f8273ffffffffffffffffffffffffffffffffffffffff16825f67ffffffffffffffff81111561086f5761086e610c8e565b5b6040519080825280601f01601f1916602001820160405280156108a15781602001600182028036833780820191505090505b506040516108af91906110ec565b5f6040518083038185875af1925050503d805f81146108e9576040519150601f19603f3d011682016040523d82523d5f602084013e6108ee565b606091505b5050905080610932576040517f08c379a00000000000000000000000000000000000000000000000000000000081526004016109299061114c565b60405180910390fd5b505b5050565b5f604051905090565b5f5ffd5b5f5ffd5b5f5ffd5b5f610180828403121561096357610962610949565b5b81905092915050565b5f6020828403121561098157610980610941565b5b5f82013567ffffffffffffffff81111561099e5761099d610945565b5b6109aa8482850161094d565b91505092915050565b5f819050919050565b6109c5816109b3565b81146109cf575f5ffd5b50565b5f813590506109e0816109bc565b92915050565b5f602082840312156109fb576109fa610941565b5b5f610a08848285016109d2565b91505092915050565b5f82825260208201905092915050565b7f564d206f6e6c79000000000000000000000000000000000000000000000000005f82015250565b5f610a55600783610a11565b9150610a6082610a21565b602082019050919050565b5f6020820190508181035f830152610a8281610a49565b9050919050565b7f4e487b71000000000000000000000000000000000000000000000000000000005f52600160045260245ffd5b5f73ffffffffffffffffffffffffffffffffffffffff82169050919050565b5f610adf82610ab6565b9050919050565b610aef81610ad5565b8114610af9575f5ffd5b50565b5f81359050610b0a81610ae6565b92915050565b5f60208284031215610b2557610b24610941565b5b5f610b3284828501610afc565b91505092915050565b5f81905092915050565b50565b5f610b535f83610b3b565b9150610b5e82610b45565b5f82019050919050565b5f610b7282610b48565b9150819050919050565b7f524541435420726566756e64206661696c6564000000000000000000000000005f82015250565b5f610bb0601383610a11565b9150610bbb82610b7c565b602082019050919050565b5f6020820190508181035f830152610bdd81610ba4565b9050919050565b610bed816109b3565b82525050565b5f602082019050610c065f830184610be4565b92915050565b5f5ffd5b5f5ffd5b5f5ffd5b5f5f83356001602003843603038112610c3457610c33610c0c565b5b80840192508235915067ffffffffffffffff821115610c5657610c55610c10565b5b602083019250600182023603831315610c7257610c71610c14565b5b509250929050565b5f5ffd5b5f601f19601f8301169050919050565b7f4e487b71000000000000000000000000000000000000000000000000000000005f52604160045260245ffd5b610cc482610c7e565b810181811067ffffffffffffffff82111715610ce357610ce2610c8e565b5b80604052505050565b5f610cf5610938565b9050610d018282610cbb565b919050565b5f6dffffffffffffffffffffffffffff82169050919050565b610d2881610d06565b8114610d32575f5ffd5b50565b5f81359050610d4381610d1f565b92915050565b5f60408284031215610d5e57610d5d610c7a565b5b610d686040610cec565b90505f610d7784828501610d35565b5f830152506020610d8a84828501610d35565b60208301525092915050565b5f60408284031215610dab57610daa610941565b5b5f610db884828501610d49565b91505092915050565b610dca81610ad5565b82525050565b5f8115159050919050565b610de481610dd0565b82525050565b5f60c082019050610dfd5f830189610dc1565b610e0a6020830188610dc1565b610e176040830187610dc1565b610e246060830186610ddb565b610e316080830185610be4565b610e3e60a0830184610be4565b979650505050505050565b5f81519050919050565b5f82825260208201905092915050565b8281835e5f83830152505050565b5f610e7b82610e49565b610e858185610e53565b9350610e95818560208601610e63565b610e9e81610c7e565b840191505092915050565b5f6020820190508181035f830152610ec18184610e71565b905092915050565b5f602082019050610edc5f830184610dc1565b92915050565b5f81519050610ef0816109bc565b92915050565b5f60208284031215610f0b57610f0a610941565b5b5f610f1884828501610ee2565b91505092915050565b7f417574686f72697a65642073656e646572206f6e6c79000000000000000000005f82015250565b5f610f55601683610a11565b9150610f6082610f21565b602082019050919050565b5f6020820190508181035f830152610f8281610f49565b9050919050565b7f4e487b71000000000000000000000000000000000000000000000000000000005f52601160045260245ffd5b5f610fc0826109b3565b9150610fcb836109b3565b9250828202610fd9816109b3565b91508282048414831517610ff057610fef610f89565b5b5092915050565b7f4e487b71000000000000000000000000000000000000000000000000000000005f52601260045260245ffd5b5f61102e826109b3565b9150611039836109b3565b92508261104957611048610ff7565b5b828204905092915050565b7f496e73756666696369656e742066756e647300000000000000000000000000005f82015250565b5f611088601283610a11565b915061109382611054565b602082019050919050565b5f6020820190508181035f8301526110b58161107c565b9050919050565b5f6110c682610e49565b6110d08185610b3b565b93506110e0818560208601610e63565b80840191505092915050565b5f6110f782846110bc565b915081905092915050565b7f5472616e73666572206661696c656400000000000000000000000000000000005f82015250565b5f611136600f83610a11565b915061114182611102565b602082019050919050565b5f6020820190508181035f8301526111638161112a565b905091905056fea2646970667358221220855e68324930a40bcb8f56214b7fd829e503cbdc837b304506c28a43a1636d0064736f6c634300081c0033","linkReferences":{}},"methodIdentifiers":{"coverDebt()":"7a90b990","pay(uint256)":"c290d691","react((uint256,address,uint256,uint256,uint256,uint256,bytes,uint256,uint256,uint256,uint256,uint256))":"0d152c2c"},"id":7}