{"abi":[{"type":"constructor","inputs":[{"name":"_callback_sender","type":"address","internalType":"address"},{"name":"_router","type":"address","internalType":"address"}],"stateMutability":"payable"},{"type":"receive","stateMutability":"payable"},{"type":"function","name":"coverDebt","inputs":[],"outputs":[],"stateMutability":"nonpayable"},{"type":"function","name":"pay","inputs":[{"name":"amount","type":"uint256","internalType":"uint256"}],"outputs":[],"stateMutability":"nonpayable"},{"type":"function","name":"stop","inputs":[{"name":"","type":"address","internalType":"address"},{"name":"pair","type":"address","internalType":"address"},{"name":"client","type":"address","internalType":"address"},{"name":"is_token0","type":"bool","internalType":"bool"},{"name":"coefficient","type":"uint256","internalType":"uint256"},{"name":"threshold","type":"uint256","internalType":"uint256"}],"outputs":[],"stateMutability":"nonpayable"},{"type":"event","name":"AvaxRefunded","inputs":[{"name":"client","type":"address","indexed":true,"internalType":"address"},{"name":"amount","type":"uint256","indexed":false,"internalType":"uint256"}],"anonymous":false},{"type":"event","name":"Stop","inputs":[{"name":"pair","type":"address","indexed":true,"internalType":"address"},{"name":"client","type":"address","indexed":true,"internalType":"address"},{"name":"token","type":"address","indexed":true,"internalType":"address"},{"name":"tokens","type":"uint256[]","indexed":false,"internalType":"uint256[]"}],"anonymous":false}],"bytecode":{"object":"0x6080604052604051611af3380380611af3833981810160405281019061002591906101b1565b813360025f6101000a81548173ffffffffffffffffffffffffffffffffffffffff021916908373ffffffffffffffffffffffffffffffffffffffff160217905550805f5f6101000a81548173ffffffffffffffffffffffffffffffffffffffff021916908373ffffffffffffffffffffffffffffffffffffffff1602179055506100b4816100fc60201b60201c565b508060035f6101000a81548173ffffffffffffffffffffffffffffffffffffffff021916908373ffffffffffffffffffffffffffffffffffffffff16021790555050506101ef565b6001805f8373ffffffffffffffffffffffffffffffffffffffff1673ffffffffffffffffffffffffffffffffffffffff1681526020019081526020015f205f6101000a81548160ff02191690831515021790555050565b5f5ffd5b5f73ffffffffffffffffffffffffffffffffffffffff82169050919050565b5f61018082610157565b9050919050565b61019081610176565b811461019a575f5ffd5b50565b5f815190506101ab81610187565b92915050565b5f5f604083850312156101c7576101c6610153565b5b5f6101d48582860161019d565b92505060206101e58582860161019d565b9150509250929050565b6118f7806101fc5f395ff3fe608060405260043610610037575f3560e01c80637a90b99014610042578063c290d69114610058578063ef201296146100805761003e565b3661003e57005b5f5ffd5b34801561004d575f5ffd5b506100566100a8565b005b348015610063575f5ffd5b5061007e60048036038101906100799190610d1f565b610170565b005b34801561008b575f5ffd5b506100a660048036038101906100a19190610dd9565b610206565b005b5f5f5f9054906101000a900473ffffffffffffffffffffffffffffffffffffffff1673ffffffffffffffffffffffffffffffffffffffff16639b6c56ec306040518263ffffffff1660e01b81526004016101029190610e71565b602060405180830381865afa15801561011d573d5f5f3e3d5ffd5b505050506040513d601f19601f820116820180604052508101906101419190610e9e565b905061016d5f5f9054906101000a900473ffffffffffffffffffffffffffffffffffffffff1682610af9565b50565b60015f3373ffffffffffffffffffffffffffffffffffffffff1673ffffffffffffffffffffffffffffffffffffffff1681526020019081526020015f205f9054906101000a900460ff166101f9576040517f08c379a00000000000000000000000000000000000000000000000000000000081526004016101f090610f23565b60405180910390fd5b6102033382610af9565b50565b60015f3373ffffffffffffffffffffffffffffffffffffffff1673ffffffffffffffffffffffffffffffffffffffff1681526020019081526020015f205f9054906101000a900460ff1661028f576040517f08c379a000000000000000000000000000000000000000000000000000000000815260040161028690610f23565b60405180910390fd5b5f8573ffffffffffffffffffffffffffffffffffffffff16630dfe16816040518163ffffffff1660e01b8152600401602060405180830381865afa1580156102d9573d5f5f3e3d5ffd5b505050506040513d601f19601f820116820180604052508101906102fd9190610f55565b90505f8673ffffffffffffffffffffffffffffffffffffffff1663d21220a76040518163ffffffff1660e01b8152600401602060405180830381865afa158015610349573d5f5f3e3d5ffd5b505050506040513d601f19601f8201168201806040525081019061036d9190610f55565b90505f5f8873ffffffffffffffffffffffffffffffffffffffff16630902f1ac6040518163ffffffff1660e01b8152600401606060405180830381865afa1580156103ba573d5f5f3e3d5ffd5b505050506040513d601f19601f820116820180604052508101906103de9190610ffc565b5091509150610423876040518060400160405280856dffffffffffffffffffffffffffff168152602001846dffffffffffffffffffffffffffff168152508888610c40565b610462576040517f08c379a000000000000000000000000000000000000000000000000000000000815260040161045990611096565b60405180910390fd5b5f8761046e5783610470565b845b90505f8861047e5785610480565b845b90505f8273ffffffffffffffffffffffffffffffffffffffff1663dd62ed3e8c306040518363ffffffff1660e01b81526004016104be9291906110b4565b602060405180830381865afa1580156104d9573d5f5f3e3d5ffd5b505050506040513d601f19601f820116820180604052508101906104fd9190610e9e565b90505f8111610541576040517f08c379a000000000000000000000000000000000000000000000000000000000815260040161053890611125565b60405180910390fd5b808373ffffffffffffffffffffffffffffffffffffffff166370a082318d6040518263ffffffff1660e01b815260040161057b9190610e71565b602060405180830381865afa158015610596573d5f5f3e3d5ffd5b505050506040513d601f19601f820116820180604052508101906105ba9190610e9e565b10156105fb576040517f08c379a00000000000000000000000000000000000000000000000000000000081526004016105f29061118d565b60405180910390fd5b8273ffffffffffffffffffffffffffffffffffffffff166323b872dd8c30846040518463ffffffff1660e01b8152600401610638939291906111ba565b6020604051808303815f875af1158015610654573d5f5f3e3d5ffd5b505050506040513d601f19601f820116820180604052508101906106789190611203565b6106855761068461122e565b5b8273ffffffffffffffffffffffffffffffffffffffff1663095ea7b360035f9054906101000a900473ffffffffffffffffffffffffffffffffffffffff16836040518363ffffffff1660e01b81526004016106e192919061125b565b6020604051808303815f875af11580156106fd573d5f5f3e3d5ffd5b505050506040513d601f19601f820116820180604052508101906107219190611203565b61072e5761072d61122e565b5b5f600267ffffffffffffffff81111561074a57610749611282565b5b6040519080825280602002602001820160405280156107785781602001602082028036833780820191505090505b50905083815f8151811061078f5761078e6112af565b5b602002602001019073ffffffffffffffffffffffffffffffffffffffff16908173ffffffffffffffffffffffffffffffffffffffff168152505082816001815181106107de576107dd6112af565b5b602002602001019073ffffffffffffffffffffffffffffffffffffffff16908173ffffffffffffffffffffffffffffffffffffffff16815250505f60035f9054906101000a900473ffffffffffffffffffffffffffffffffffffffff1673ffffffffffffffffffffffffffffffffffffffff166338ed1739845f853063a15f84a76040518663ffffffff1660e01b815260040161087f9594939291906113d5565b5f604051808303815f875af115801561089a573d5f5f3e3d5ffd5b505050506040513d5f823e3d601f19601f820116820180604052508101906108c29190611550565b90508373ffffffffffffffffffffffffffffffffffffffff1663a9059cbb8e836001815181106108f5576108f46112af565b5b60200260200101516040518363ffffffff1660e01b815260040161091a92919061125b565b6020604051808303815f875af1158015610936573d5f5f3e3d5ffd5b505050506040513d601f19601f8201168201806040525081019061095a9190611203565b6109675761096661122e565b5b8473ffffffffffffffffffffffffffffffffffffffff168d73ffffffffffffffffffffffffffffffffffffffff168f73ffffffffffffffffffffffffffffffffffffffff167f9996f0dd09556ca972123b22cf9f75c3765bc699a1336a85286c7cb8b9889c6b846040516109db919061164e565b60405180910390a45f4790505f811115610ae7575f8e73ffffffffffffffffffffffffffffffffffffffff1682604051610a149061169b565b5f6040518083038185875af1925050503d805f8114610a4e576040519150601f19603f3d011682016040523d82523d5f602084013e610a53565b606091505b5050905080610a97576040517f08c379a0000000000000000000000000000000000000000000000000000000008152600401610a8e906116f9565b60405180910390fd5b8e73ffffffffffffffffffffffffffffffffffffffff167f46dbc9d7443b45a753916acff6211ae5f5dc51c380bc7dc584e70a074594e77783604051610add9190611717565b60405180910390a2505b50505050505050505050505050505050565b80471015610b3c576040517f08c379a0000000000000000000000000000000000000000000000000000000008152600401610b339061118d565b60405180910390fd5b5f811115610c3c575f8273ffffffffffffffffffffffffffffffffffffffff16825f67ffffffffffffffff811115610b7757610b76611282565b5b6040519080825280601f01601f191660200182016040528015610ba95781602001600182028036833780820191505090505b50604051610bb79190611778565b5f6040518083038185875af1925050503d805f8114610bf1576040519150601f19603f3d011682016040523d82523d5f602084013e610bf6565b606091505b5050905080610c3a576040517f08c379a0000000000000000000000000000000000000000000000000000000008152600401610c31906117d8565b60405180910390fd5b505b5050565b5f8415610c8f5781845f01516dffffffffffffffffffffffffffff168486602001516dffffffffffffffffffffffffffff16610c7c9190611823565b610c869190611891565b11159050610cd3565b8184602001516dffffffffffffffffffffffffffff1684865f01516dffffffffffffffffffffffffffff16610cc49190611823565b610cce9190611891565b111590505b949350505050565b5f604051905090565b5f5ffd5b5f5ffd5b5f819050919050565b610cfe81610cec565b8114610d08575f5ffd5b50565b5f81359050610d1981610cf5565b92915050565b5f60208284031215610d3457610d33610ce4565b5b5f610d4184828501610d0b565b91505092915050565b5f73ffffffffffffffffffffffffffffffffffffffff82169050919050565b5f610d7382610d4a565b9050919050565b610d8381610d69565b8114610d8d575f5ffd5b50565b5f81359050610d9e81610d7a565b92915050565b5f8115159050919050565b610db881610da4565b8114610dc2575f5ffd5b50565b5f81359050610dd381610daf565b92915050565b5f5f5f5f5f5f60c08789031215610df357610df2610ce4565b5b5f610e0089828a01610d90565b9650506020610e1189828a01610d90565b9550506040610e2289828a01610d90565b9450506060610e3389828a01610dc5565b9350506080610e4489828a01610d0b565b92505060a0610e5589828a01610d0b565b9150509295509295509295565b610e6b81610d69565b82525050565b5f602082019050610e845f830184610e62565b92915050565b5f81519050610e9881610cf5565b92915050565b5f60208284031215610eb357610eb2610ce4565b5b5f610ec084828501610e8a565b91505092915050565b5f82825260208201905092915050565b7f417574686f72697a65642073656e646572206f6e6c79000000000000000000005f82015250565b5f610f0d601683610ec9565b9150610f1882610ed9565b602082019050919050565b5f6020820190508181035f830152610f3a81610f01565b9050919050565b5f81519050610f4f81610d7a565b92915050565b5f60208284031215610f6a57610f69610ce4565b5b5f610f7784828501610f41565b91505092915050565b5f6dffffffffffffffffffffffffffff82169050919050565b610fa281610f80565b8114610fac575f5ffd5b50565b5f81519050610fbd81610f99565b92915050565b5f63ffffffff82169050919050565b610fdb81610fc3565b8114610fe5575f5ffd5b50565b5f81519050610ff681610fd2565b92915050565b5f5f5f6060848603121561101357611012610ce4565b5b5f61102086828701610faf565b935050602061103186828701610faf565b925050604061104286828701610fe8565b9150509250925092565b7f526174652061626f7665207468726573686f6c640000000000000000000000005f82015250565b5f611080601483610ec9565b915061108b8261104c565b602082019050919050565b5f6020820190508181035f8301526110ad81611074565b9050919050565b5f6040820190506110c75f830185610e62565b6110d46020830184610e62565b9392505050565b7f4e6f20616c6c6f77616e636500000000000000000000000000000000000000005f82015250565b5f61110f600c83610ec9565b915061111a826110db565b602082019050919050565b5f6020820190508181035f83015261113c81611103565b9050919050565b7f496e73756666696369656e742066756e647300000000000000000000000000005f82015250565b5f611177601283610ec9565b915061118282611143565b602082019050919050565b5f6020820190508181035f8301526111a48161116b565b9050919050565b6111b481610cec565b82525050565b5f6060820190506111cd5f830186610e62565b6111da6020830185610e62565b6111e760408301846111ab565b949350505050565b5f815190506111fd81610daf565b92915050565b5f6020828403121561121857611217610ce4565b5b5f611225848285016111ef565b91505092915050565b7f4e487b71000000000000000000000000000000000000000000000000000000005f52600160045260245ffd5b5f60408201905061126e5f830185610e62565b61127b60208301846111ab565b9392505050565b7f4e487b71000000000000000000000000000000000000000000000000000000005f52604160045260245ffd5b7f4e487b71000000000000000000000000000000000000000000000000000000005f52603260045260245ffd5b5f819050919050565b5f819050919050565b5f6113086113036112fe846112dc565b6112e5565b610cec565b9050919050565b611318816112ee565b82525050565b5f81519050919050565b5f82825260208201905092915050565b5f819050602082019050919050565b61135081610d69565b82525050565b5f6113618383611347565b60208301905092915050565b5f602082019050919050565b5f6113838261131e565b61138d8185611328565b935061139883611338565b805f5b838110156113c85781516113af8882611356565b97506113ba8361136d565b92505060018101905061139b565b5085935050505092915050565b5f60a0820190506113e85f8301886111ab565b6113f5602083018761130f565b81810360408301526114078186611379565b90506114166060830185610e62565b61142360808301846111ab565b9695505050505050565b5f5ffd5b5f601f19601f8301169050919050565b61144a82611431565b810181811067ffffffffffffffff8211171561146957611468611282565b5b80604052505050565b5f61147b610cdb565b90506114878282611441565b919050565b5f67ffffffffffffffff8211156114a6576114a5611282565b5b602082029050602081019050919050565b5f5ffd5b5f6114cd6114c88461148c565b611472565b905080838252602082019050602084028301858111156114f0576114ef6114b7565b5b835b8181101561151957806115058882610e8a565b8452602084019350506020810190506114f2565b5050509392505050565b5f82601f8301126115375761153661142d565b5b81516115478482602086016114bb565b91505092915050565b5f6020828403121561156557611564610ce4565b5b5f82015167ffffffffffffffff81111561158257611581610ce8565b5b61158e84828501611523565b91505092915050565b5f81519050919050565b5f82825260208201905092915050565b5f819050602082019050919050565b6115c981610cec565b82525050565b5f6115da83836115c0565b60208301905092915050565b5f602082019050919050565b5f6115fc82611597565b61160681856115a1565b9350611611836115b1565b805f5b8381101561164157815161162888826115cf565b9750611633836115e6565b925050600181019050611614565b5085935050505092915050565b5f6020820190508181035f83015261166681846115f2565b905092915050565b5f81905092915050565b50565b5f6116865f8361166e565b915061169182611678565b5f82019050919050565b5f6116a58261167b565b9150819050919050565b7f4156415820726566756e64206661696c656400000000000000000000000000005f82015250565b5f6116e3601283610ec9565b91506116ee826116af565b602082019050919050565b5f6020820190508181035f830152611710816116d7565b9050919050565b5f60208201905061172a5f8301846111ab565b92915050565b5f81519050919050565b8281835e5f83830152505050565b5f61175282611730565b61175c818561166e565b935061176c81856020860161173a565b80840191505092915050565b5f6117838284611748565b915081905092915050565b7f5472616e73666572206661696c656400000000000000000000000000000000005f82015250565b5f6117c2600f83610ec9565b91506117cd8261178e565b602082019050919050565b5f6020820190508181035f8301526117ef816117b6565b9050919050565b7f4e487b71000000000000000000000000000000000000000000000000000000005f52601160045260245ffd5b5f61182d82610cec565b915061183883610cec565b925082820261184681610cec565b9150828204841483151761185d5761185c6117f6565b5b5092915050565b7f4e487b71000000000000000000000000000000000000000000000000000000005f52601260045260245ffd5b5f61189b82610cec565b91506118a683610cec565b9250826118b6576118b5611864565b5b82820490509291505056fea264697066735822122068a5df0865e04be57c232d7020ff68b831a2eecdfdc8a1c701d4209c0b8e6fec64736f6c634300081c0033","linkReferences":{}},"methodIdentifiers":{"coverDebt()":"7a90b990","pay(uint256)":"c290d691","stop(address,address,address,bool,uint256,uint256)":"ef201296"},"id":7}